:1000000009C00EC00DC00CC00BC00AC009C008C09A
:1000100007C006C011241FBECFE9CDBF21D02EC01E
:10002000EFCF80EF90E02FEF3FE647E121503040E7
:100030004040E1F700C0000001970097A1F7089544
:100040002FEF83EF91E0215080409040E1F700C016
:1000500000000895C39A0895C3980895BB9AFACFF3
:10006000FDDFDFDFF9DF2FEF83EF91E021508040EC
:100070009040E1F700C00000EDDFF3CFF894FFCF30
:00000001FF
